{
  "contractName": "CommodityInfo",
  "abi": [
    {
      "anonymous": false,
      "inputs": [
        {
          "indexed": false,
          "name": "id",
          "type": "bytes"
        },
        {
          "indexed": false,
          "name": "originPlace",
          "type": "string"
        },
        {
          "indexed": false,
          "name": "productionDate",
          "type": "uint256"
        },
        {
          "indexed": false,
          "name": "shelfLife",
          "type": "uint256"
        }
      ],
      "name": "AddCommodity",
      "type": "event"
    },
    {
      "constant": false,
      "inputs": [
        {
          "name": "user",
          "type": "address"
        }
      ],
      "name": "addUser",
      "outputs": [],
      "payable": false,
      "stateMutability": "nonpayable",
      "type": "function"
    },
    {
      "constant": false,
      "inputs": [
        {
          "name": "user",
          "type": "address"
        }
      ],
      "name": "removeUser",
      "outputs": [],
      "payable": false,
      "stateMutability": "nonpayable",
      "type": "function"
    },
    {
      "constant": false,
      "inputs": [
        {
          "name": "master",
          "type": "address"
        }
      ],
      "name": "setMaster",
      "outputs": [],
      "payable": false,
      "stateMutability": "nonpayable",
      "type": "function"
    },
    {
      "constant": false,
      "inputs": [
        {
          "name": "credit",
          "type": "uint256"
        },
        {
          "name": "recoveryRate",
          "type": "uint256"
        }
      ],
      "name": "setCreditPlan",
      "outputs": [],
      "payable": false,
      "stateMutability": "nonpayable",
      "type": "function"
    },
    {
      "constant": true,
      "inputs": [],
      "name": "creditPlan",
      "outputs": [
        {
          "name": "credit",
          "type": "uint256"
        },
        {
          "name": "recoveryRate",
          "type": "uint256"
        }
      ],
      "payable": false,
      "stateMutability": "view",
      "type": "function"
    },
    {
      "constant": false,
      "inputs": [],
      "name": "sponsor",
      "outputs": [],
      "payable": false,
      "stateMutability": "nonpayable",
      "type": "function"
    },
    {
      "constant": false,
      "inputs": [],
      "name": "unsponsor",
      "outputs": [],
      "payable": false,
      "stateMutability": "nonpayable",
      "type": "function"
    },
    {
      "constant": true,
      "inputs": [
        {
          "name": "_sponsor",
          "type": "address"
        }
      ],
      "name": "isSponsor",
      "outputs": [
        {
          "name": "",
          "type": "bool"
        }
      ],
      "payable": false,
      "stateMutability": "view",
      "type": "function"
    },
    {
      "constant": false,
      "inputs": [
        {
          "name": "id",
          "type": "bytes"
        },
        {
          "name": "originPlace",
          "type": "string"
        },
        {
          "name": "productionDate",
          "type": "uint256"
        },
        {
          "name": "shelfLife",
          "type": "uint256"
        }
      ],
      "name": "addCommodityItem",
      "outputs": [],
      "payable": false,
      "stateMutability": "nonpayable",
      "type": "function"
    },
    {
      "constant": true,
      "inputs": [
        {
          "name": "id",
          "type": "bytes"
        }
      ],
      "name": "getCommodityItem",
      "outputs": [
        {
          "name": "",
          "type": "string"
        },
        {
          "name": "",
          "type": "uint256"
        },
        {
          "name": "",
          "type": "uint256"
        }
      ],
      "payable": false,
      "stateMutability": "view",
      "type": "function"
    },
    {
      "constant": true,
      "inputs": [
        {
          "name": "id",
          "type": "bytes"
        }
      ],
      "name": "isCommodityExpired",
      "outputs": [
        {
          "name": "",
          "type": "bool"
        }
      ],
      "payable": false,
      "stateMutability": "view",
      "type": "function"
    }
  ],
  "bytecode": "0x608060405261001f61007164010000000002611aee176401000000009004565b600160006101000a81548173ffffffffffffffffffffffffffffffffffffffff021916908373ffffffffffffffffffffffffffffffffffffffff16021790555034801561006b57600080fd5b506100b4565b60007f457874656e73696f6e0000000000000000000000000000000000000000000000770100000000000000000000000000000000000000000000009004905090565b611b5d806100c36000396000f3006080604052600436106100af576000357c0100000000000000000000000000000000000000000000000000000000900463ffffffff1680631b744635146100b457806326fae0d31461017757806336373513146101ba578063421b2d8b146102155780634524bd6f1461025857806361414aae1461028f57806377c93662146102c15780637fcedfa0146102d857806398575188146102ef578063acfc106c14610332578063fdf63a80146103b3575b600080fd5b3480156100c057600080fd5b50610175600480360381019080803590602001908201803590602001908080601f0160208091040260200160405190810160405280939291908181526020018383808284378201915050505050509192919290803590602001908201803590602001908080601f016020809104026020016040519081016040528093929190818152602001838380828437820191505050505050919291929080359060200190929190803590602001909291905050506104a3565b005b34801561018357600080fd5b506101b8600480360381019080803573ffffffffffffffffffffffffffffffffffffffff169060200190929190505050610828565b005b3480156101c657600080fd5b506101fb600480360381019080803573ffffffffffffffffffffffffffffffffffffffff1690602001909291905050506108ac565b604051808215151515815260200191505060405180910390f35b34801561022157600080fd5b50610256600480360381019080803573ffffffffffffffffffffffffffffffffffffffff1690602001909291905050506108de565b005b34801561026457600080fd5b5061028d6004803603810190808035906020019092919080359060200190929190505050610962565b005b34801561029b57600080fd5b506102a46109e9565b604051808381526020018281526020019250505060405180910390f35b3480156102cd57600080fd5b506102d6610a13565b005b3480156102e457600080fd5b506102ed610a34565b005b3480156102fb57600080fd5b50610330600480360381019080803573ffffffffffffffffffffffffffffffffffffffff169060200190929190505050610a55565b005b34801561033e57600080fd5b50610399600480360381019080803590602001908201803590602001908080601f0160208091040260200160405190810160405280939291908181526020018383808284378201915050505050509192919290505050610ad9565b604051808215151515815260200191505060405180910390f35b3480156103bf57600080fd5b5061041a600480360381019080803590602001908201803590602001908080601f0160208091040260200160405190810160405280939291908181526020018383808284378201915050505050509192919290505050610c57565b6040518080602001848152602001838152602001828103825285818151815260200191508051906020019080838360005b8381101561046657808201518184015260208101905061044b565b50505050905090810190601f1680156104935780820380516001836020036101000a031916815260200191505b5094505050505060405180910390f35b60006104c43073ffffffffffffffffffffffffffffffffffffffff16610e94565b73ffffffffffffffffffffffffffffffffffffffff163373ffffffffffffffffffffffffffffffffffffffff1614806105225750610521333073ffffffffffffffffffffffffffffffffffffffff16610fae90919063ffffffff16565b5b151561052d57600080fd5b600160009054906101000a900473ffffffffffffffffffffffffffffffffffffffff1673ffffffffffffffffffffffffffffffffffffffff166337245814866040518263ffffffff167c01000000000000000000000000000000000000000000000000000000000281526004018080602001828103825283818151815260200191508051906020019080838360005b838110156105d75780820151818401526020810190506105bc565b50505050905090810190601f1680156106045780820380516001836020036101000a031916815260200191505b5092505050602060405180830381600087803b15801561062357600080fd5b505af1158015610637573d6000803e3d6000fd5b505050506040513d602081101561064d57600080fd5b8101908080519060200190929190505050905084600080836000191660001916815260200190815260200160002060000190805190602001906106919291906119c9565b5083600080836000191660001916815260200190815260200160002060010190805190602001906106c3929190611a49565b5082600080836000191660001916815260200190815260200160002060020181905550816000808360001916600019168152602001908152602001600020600301819055507f34410c70bdbb1a1ec0713f6539a43fac78b3b5d54aad016b118bc7db7a171aed85858585604051808060200180602001858152602001848152602001838103835287818151815260200191508051906020019080838360005b8381101561077d578082015181840152602081019050610762565b50505050905090810190601f1680156107aa5780820380516001836020036101000a031916815260200191505b50838103825286818151815260200191508051906020019080838360005b838110156107e35780820151818401526020810190506107c8565b50505050905090810190601f1680156108105780820380516001836020036101000a031916815260200191505b50965050505050505060405180910390a15050505050565b6108473073ffffffffffffffffffffffffffffffffffffffff16610e94565b73ffffffffffffffffffffffffffffffffffffffff163373ffffffffffffffffffffffffffffffffffffffff1614151561088057600080fd5b6108a9813073ffffffffffffffffffffffffffffffffffffffff166110fd90919063ffffffff16565b50565b60006108d7823073ffffffffffffffffffffffffffffffffffffffff1661122390919063ffffffff16565b9050919050565b6108fd3073ffffffffffffffffffffffffffffffffffffffff16610e94565b73ffffffffffffffffffffffffffffffffffffffff163373ffffffffffffffffffffffffffffffffffffffff1614151561093657600080fd5b61095f813073ffffffffffffffffffffffffffffffffffffffff1661137290919063ffffffff16565b50565b6109813073ffffffffffffffffffffffffffffffffffffffff16610e94565b73ffffffffffffffffffffffffffffffffffffffff163373ffffffffffffffffffffffffffffffffffffffff161415156109ba57600080fd5b6109e582823073ffffffffffffffffffffffffffffffffffffffff166114989092919063ffffffff16565b5050565b600080610a0b3073ffffffffffffffffffffffffffffffffffffffff1661159b565b915091509091565b610a323073ffffffffffffffffffffffffffffffffffffffff166116c1565b565b610a533073ffffffffffffffffffffffffffffffffffffffff166117b2565b565b610a743073ffffffffffffffffffffffffffffffffffffffff16610e94565b73ffffffffffffffffffffffffffffffffffffffff163373ffffffffffffffffffffffffffffffffffffffff16141515610aad57600080fd5b610ad6813073ffffffffffffffffffffffffffffffffffffffff166118a390919063ffffffff16565b50565b600080600160009054906101000a900473ffffffffffffffffffffffffffffffffffffffff1673ffffffffffffffffffffffffffffffffffffffff166337245814846040518263ffffffff167c01000000000000000000000000000000000000000000000000000000000281526004018080602001828103825283818151815260200191508051906020019080838360005b83811015610b86578082015181840152602081019050610b6b565b50505050905090810190601f168015610bb35780820380516001836020036101000a031916815260200191505b5092505050602060405180830381600087803b158015610bd257600080fd5b505af1158015610be6573d6000803e3d6000fd5b505050506040513d6020811015610bfc57600080fd5b8101908080519060200190929190505050905042600080836000191660001916815260200190815260200160002060030154600080846000191660001916815260200190815260200160002060020154011115915050919050565b60606000806000600160009054906101000a900473ffffffffffffffffffffffffffffffffffffffff1673ffffffffffffffffffffffffffffffffffffffff166337245814866040518263ffffffff167c01000000000000000000000000000000000000000000000000000000000281526004018080602001828103825283818151815260200191508051906020019080838360005b83811015610d08578082015181840152602081019050610ced565b50505050905090810190601f168015610d355780820380516001836020036101000a031916815260200191505b5092505050602060405180830381600087803b158015610d5457600080fd5b505af1158015610d68573d6000803e3d6000fd5b505050506040513d6020811015610d7e57600080fd5b810190808051906020019092919050505090506000808260001916600019168152602001908152602001600020600101600080836000191660001916815260200190815260200160002060020154600080846000191660001916815260200190815260200160002060030154828054600181600116156101000203166002900480601f016020809104026020016040519081016040528092919081815260200182805460018160011615610100020316600290048015610e7f5780601f10610e5457610100808354040283529160200191610e7f565b820191906000526020600020905b815481529060010190602001808311610e6257829003601f168201915b50505050509250935093509350509193909250565b60007f50726f746f74797065000000000000000000000000000000000000000000000077010000000000000000000000000000000000000000000000900473ffffffffffffffffffffffffffffffffffffffff16639ed153c0836040518263ffffffff167c0100000000000000000000000000000000000000000000000000000000028152600401808273ffffffffffffffffffffffffffffffffffffffff1673ffffffffffffffffffffffffffffffffffffffff168152602001915050602060405180830381600087803b158015610f6c57600080fd5b505af1158015610f80573d6000803e3d6000fd5b505050506040513d6020811015610f9657600080fd5b81019080805190602001909291905050509050919050565b60007f50726f746f74797065000000000000000000000000000000000000000000000077010000000000000000000000000000000000000000000000900473ffffffffffffffffffffffffffffffffffffffff166302d43dc884846040518363ffffffff167c0100000000000000000000000000000000000000000000000000000000028152600401808373ffffffffffffffffffffffffffffffffffffffff1673ffffffffffffffffffffffffffffffffffffffff1681526020018273ffffffffffffffffffffffffffffffffffffffff1673ffffffffffffffffffffffffffffffffffffffff16815260200192505050602060405180830381600087803b1580156110ba57600080fd5b505af11580156110ce573d6000803e3d6000fd5b505050506040513d60208110156110e457600080fd5b8101908080519060200190929190505050905092915050565b7f50726f746f74797065000000000000000000000000000000000000000000000077010000000000000000000000000000000000000000000000900473ffffffffffffffffffffffffffffffffffffffff166301378b5883836040518363ffffffff167c0100000000000000000000000000000000000000000000000000000000028152600401808373ffffffffffffffffffffffffffffffffffffffff1673ffffffffffffffffffffffffffffffffffffffff1681526020018273ffffffffffffffffffffffffffffffffffffffff1673ffffffffffffffffffffffffffffffffffffffff16815260200192505050600060405180830381600087803b15801561120757600080fd5b505af115801561121b573d6000803e3d6000fd5b505050505050565b60007f50726f746f74797065000000000000000000000000000000000000000000000077010000000000000000000000000000000000000000000000900473ffffffffffffffffffffffffffffffffffffffff1663d87333ac84846040518363ffffffff167c0100000000000000000000000000000000000000000000000000000000028152600401808373ffffffffffffffffffffffffffffffffffffffff1673ffffffffffffffffffffffffffffffffffffffff1681526020018273ffffffffffffffffffffffffffffffffffffffff1673ffffffffffffffffffffffffffffffffffffffff16815260200192505050602060405180830381600087803b15801561132f57600080fd5b505af1158015611343573d6000803e3d6000fd5b505050506040513d602081101561135957600080fd5b8101908080519060200190929190505050905092915050565b7f50726f746f74797065000000000000000000000000000000000000000000000077010000000000000000000000000000000000000000000000900473ffffffffffffffffffffffffffffffffffffffff16638ca3b44883836040518363ffffffff167c0100000000000000000000000000000000000000000000000000000000028152600401808373ffffffffffffffffffffffffffffffffffffffff1673ffffffffffffffffffffffffffffffffffffffff1681526020018273ffffffffffffffffffffffffffffffffffffffff1673ffffffffffffffffffffffffffffffffffffffff16815260200192505050600060405180830381600087803b15801561147c57600080fd5b505af1158015611490573d6000803e3d6000fd5b505050505050565b7f50726f746f74797065000000000000000000000000000000000000000000000077010000000000000000000000000000000000000000000000900473ffffffffffffffffffffffffffffffffffffffff16633659f8ed8484846040518463ffffffff167c0100000000000000000000000000000000000000000000000000000000028152600401808473ffffffffffffffffffffffffffffffffffffffff1673ffffffffffffffffffffffffffffffffffffffff1681526020018381526020018281526020019350505050600060405180830381600087803b15801561157e57600080fd5b505af1158015611592573d6000803e3d6000fd5b50505050505050565b6000807f50726f746f74797065000000000000000000000000000000000000000000000077010000000000000000000000000000000000000000000000900473ffffffffffffffffffffffffffffffffffffffff166380df45b4846040518263ffffffff167c0100000000000000000000000000000000000000000000000000000000028152600401808273ffffffffffffffffffffffffffffffffffffffff1673ffffffffffffffffffffffffffffffffffffffff1681526020019150506040805180830381600087803b15801561167357600080fd5b505af1158015611687573d6000803e3d6000fd5b505050506040513d604081101561169d57600080fd5b81019080805190602001909291908051906020019092919050505091509150915091565b7f50726f746f74797065000000000000000000000000000000000000000000000077010000000000000000000000000000000000000000000000900473ffffffffffffffffffffffffffffffffffffffff1663766c4f37826040518263ffffffff167c0100000000000000000000000000000000000000000000000000000000028152600401808273ffffffffffffffffffffffffffffffffffffffff1673ffffffffffffffffffffffffffffffffffffffff168152602001915050600060405180830381600087803b15801561179757600080fd5b505af11580156117ab573d6000803e3d6000fd5b5050505050565b7f50726f746f74797065000000000000000000000000000000000000000000000077010000000000000000000000000000000000000000000000900473ffffffffffffffffffffffffffffffffffffffff1663cdd2a99f826040518263ffffffff167c0100000000000000000000000000000000000000000000000000000000028152600401808273ffffffffffffffffffffffffffffffffffffffff1673ffffffffffffffffffffffffffffffffffffffff168152602001915050600060405180830381600087803b15801561188857600080fd5b505af115801561189c573d6000803e3d6000fd5b5050505050565b7f50726f746f74797065000000000000000000000000000000000000000000000077010000000000000000000000000000000000000000000000900473ffffffffffffffffffffffffffffffffffffffff166322928d6b83836040518363ffffffff167c0100000000000000000000000000000000000000000000000000000000028152600401808373ffffffffffffffffffffffffffffffffffffffff1673ffffffffffffffffffffffffffffffffffffffff1681526020018273ffffffffffffffffffffffffffffffffffffffff1673ffffffffffffffffffffffffffffffffffffffff16815260200192505050600060405180830381600087803b1580156119ad57600080fd5b505af11580156119c1573d6000803e3d6000fd5b505050505050565b828054600181600116156101000203166002900490600052602060002090601f016020900481019282601f10611a0a57805160ff1916838001178555611a38565b82800160010185558215611a38579182015b82811115611a37578251825591602001919060010190611a1c565b5b509050611a459190611ac9565b5090565b828054600181600116156101000203166002900490600052602060002090601f016020900481019282601f10611a8a57805160ff1916838001178555611ab8565b82800160010185558215611ab8579182015b82811115611ab7578251825591602001919060010190611a9c565b5b509050611ac59190611ac9565b5090565b611aeb91905b80821115611ae7576000816000905550600101611acf565b5090565b90565b60007f457874656e73696f6e00000000000000000000000000000000000000000000007701000000000000000000000000000000000000000000000090049050905600a165627a7a72305820ace08a61fb9b36f9609ad222d7244258b1984ec17f119698e72fc552c0b350c20029",
  "source": "pragma solidity ^0.4.23;\n\nimport \"../../../contracts/builtin.sol\";\n\n/// @title CommodityInfo stores commodity information into a contract storage.\n/// Just for example, the information of commodity is very simple and it includes id, originPlace, productionDate and shelfLife.\n/// Only master or users of the contract have authority to add commodity information.\n\ncontract CommodityInfo {\n\n    struct Item {\n        // commodity id\n        bytes id;\n\n        // production origin place\n        string originPlace;\n\n        // production date\n        uint productionDate;\n\n        // shelf life\n        uint shelfLife;\n    }\n\n    mapping(bytes32=>Item) Commodity;\n\n    using Builtin for CommodityInfo;\n\n    Extension extension = Builtin.getExtension();\n\n    event AddCommodity(bytes id, string originPlace, uint productionDate, uint shelfLife);\n\n    modifier onlyMasterOrUsers() {\n        require(msg.sender == this.$master() || this.$isUser(msg.sender));\n        _;\n    }\n\n    modifier onlyMaster() {\n        require(msg.sender == this.$master());\n        _;\n    }\n\n    /// @notice The user have the authority to add or modify commodity info.\n    function addUser(address user) public onlyMaster {\n        this.$addUser(user);\n    }\n\n    function removeUser(address user) public onlyMaster {\n        this.$removeUser(user);\n    }\n\n    function setMaster(address master) public onlyMaster {\n        this.$setMaster(master);\n    }\n\n    function setCreditPlan(uint256 credit, uint256 recoveryRate) public onlyMaster {\n        this.$setCreditPlan(credit, recoveryRate);\n    }\n\n    function creditPlan() public view returns(uint256 credit, uint256 recoveryRate) {\n        return this.$creditPlan();\n    }\n\n    /// @notice The msg sender will sponsor the contract\n    function sponsor() public {\n        this.$sponsor();\n    }\n\n    /// @notice The msg sender will remove it from the sponsor list.\n    function unsponsor() public {\n        this.$unsponsor();\n    }\n\n    /// @notice To check if the msg sender is a sponsor.\n    function isSponsor(address _sponsor) public view returns(bool) {\n        return this.$isSponsor(_sponsor);\n    }\n\n    /// @notice The master or users will add an item of commodity info. \n    function addCommodityItem(bytes id, string originPlace, uint productionDate, uint shelfLife) public onlyMasterOrUsers {\n        bytes32 key = extension.blake2b256(id);\n        Commodity[key].id = id;\n        Commodity[key].originPlace = originPlace;\n        Commodity[key].productionDate = productionDate;\n        Commodity[key].shelfLife = shelfLife;\n\n        emit AddCommodity(id, originPlace, productionDate, shelfLife);\n    }\n\n    /// @notice To get commodity info from id.\n    function getCommodityItem(bytes id) public view returns(string, uint, uint) {\n        bytes32 key = extension.blake2b256(id);\n        return(Commodity[key].originPlace, Commodity[key].productionDate, Commodity[key].shelfLife);\n    }\n\n    /// @notice To check if the commodity is expired.\n    function isCommodityExpired(bytes id) public view returns(bool) {\n        bytes32 key = extension.blake2b256(id);\n        return Commodity[key].productionDate + Commodity[key].shelfLife <= now;\n    }\n}\n",
  "sourcePath": "/Users/llyan/Documents/job/thor-builtins/examples/commodity/contracts/CommodityInfo.sol",
  "compiler": {
    "name": "solc",
    "version": "0.4.24+commit.e67f0147.Emscripten.clang"
  },
  "schemaVersion": "2.0.1",
  "updatedAt": "2018-07-23T08:17:09.055Z"
}